{
  "_format": "hh-sol-artifact-1",
  "contractName": "Whitelist",
  "sourceName": "contracts/Whitelist.sol",
  "abi": [
    {
      "inputs": [
        {
          "internalType": "uint256",
          "name": "_maxWhitelistedAddresses",
          "type": "uint256"
        }
      ],
      "stateMutability": "nonpayable",
      "type": "constructor"
    },
    {
      "inputs": [],
      "name": "addAddressToWhitelist",
      "outputs": [],
      "stateMutability": "nonpayable",
      "type": "function"
    },
    {
      "inputs": [],
      "name": "maxWhitelistedAddresses",
      "outputs": [
        {
          "internalType": "uint256",
          "name": "",
          "type": "uint256"
        }
      ],
      "stateMutability": "view",
      "type": "function"
    },
    {
      "inputs": [],
      "name": "numAddressesWhitelisted",
      "outputs": [
        {
          "internalType": "uint256",
          "name": "",
          "type": "uint256"
        }
      ],
      "stateMutability": "view",
      "type": "function"
    },
    {
      "inputs": [
        {
          "internalType": "address",
          "name": "",
          "type": "address"
        }
      ],
      "name": "whitelistedAddresses",
      "outputs": [
        {
          "internalType": "bool",
          "name": "",
          "type": "bool"
        }
      ],
      "stateMutability": "view",
      "type": "function"
    }
  ],
  "bytecode": "0x608060405234801561001057600080fd5b5060405161057b38038061057b83398181016040528101906100329190610054565b806000819055505061009e565b60008151905061004e81610087565b92915050565b60006020828403121561006657600080fd5b60006100748482850161003f565b91505092915050565b6000819050919050565b6100908161007d565b811461009b57600080fd5b50565b6104ce806100ad6000396000f3fe608060405234801561001057600080fd5b506004361061004c5760003560e01c806306c933d81461005157806331a72188146100815780634011d7cd1461009f5780638e7314d9146100bd575b600080fd5b61006b6004803603810190610066919061024e565b6100c7565b60405161007891906102db565b60405180910390f35b6100896100e7565b6040516100969190610336565b60405180910390f35b6100a76100ed565b6040516100b49190610336565b60405180910390f35b6100c56100f3565b005b60026020528060005260406000206000915054906101000a900460ff1681565b60005481565b60015481565b600260003373ffffffffffffffffffffffffffffffffffffffff1673ffffffffffffffffffffffffffffffffffffffff16815260200190815260200160002060009054906101000a900460ff1615610180576040517f08c379a000000000000000000000000000000000000000000000000000000000815260040161017790610316565b60405180910390fd5b600054600154106101c6576040517f08c379a00000000000000000000000000000000000000000000000000000000081526004016101bd906102f6565b60405180910390fd5b6001600260003373ffffffffffffffffffffffffffffffffffffffff1673ffffffffffffffffffffffffffffffffffffffff16815260200190815260200160002060006101000a81548160ff02191690831515021790555060018060008282546102309190610362565b92505081905550565b60008135905061024881610481565b92915050565b60006020828403121561026057600080fd5b600061026e84828501610239565b91505092915050565b610280816103ca565b82525050565b6000610293601f83610351565b915061029e8261042f565b602082019050919050565b60006102b6601a83610351565b91506102c182610458565b602082019050919050565b6102d5816103f6565b82525050565b60006020820190506102f06000830184610277565b92915050565b6000602082019050818103600083015261030f81610286565b9050919050565b6000602082019050818103600083015261032f816102a9565b9050919050565b600060208201905061034b60008301846102cc565b92915050565b600082825260208201905092915050565b600061036d826103f6565b9150610378836103f6565b9250827fffffffffffffffffffffffffffffffffffffffffffffffffffffffffffffffff038211156103ad576103ac610400565b5b828201905092915050565b60006103c3826103d6565b9050919050565b60008115159050919050565b600073ffffffffffffffffffffffffffffffffffffffff82169050919050565b6000819050919050565b7f4e487b7100000000000000000000000000000000000000000000000000000000600052601160045260246000fd5b7f57652072656163686564206f7572206d6178696d756d20636170616369747900600082015250565b7f53656e64657220616c72656164792077686974656c6973746564000000000000600082015250565b61048a816103b8565b811461049557600080fd5b5056fea26469706673582212202cb2aa9170dd1db3f8970c505f615adc545be040c18f5dd548c6426f806161eb64736f6c63430008040033",
  "linkReferences": {},
  "deployedLinkReferences": {}
}